:100000000C945D000C9485000C9485000C94850084
:100010000C9485000C9485000C9485000C9485004C
:100020000C9485000C9485000C9485000C9485003C
:100030000C9485000C9485000C9485000C9485002C
:100040000C94EB020C9485000C94B9020C9493026E
:100050000C9485000C9485000C9485000C9485000C
:100060000C9485000C94850000000008000201003B
:100070000003040700000000000000000000000072
:10008000250028002B0000000000240027002A0083
:10009000040404040404040402020202020203032E
:1000A0000303030301020408102040800102040836
:1000B0001020010204081020B20411241FBECFEF4B
:1000C000D8E0DEBFCDBF11E0A0E0B1E0EEE8FAE09D
:1000D00002C005900D92A832B107D9F721E0A8E23D
:1000E000B1E001C01D92A43DB207E1F710E0CDE5FB
:1000F000D0E004C02197FE010E943A05CC35D1071B
:10010000C9F70E9435030C9445050C94000090E05B
:10011000FC01EC55FF4F2491FC01E057FF4F849107
:10012000882399F090E0880F991FFC01EA57FF4F50
:10013000A591B491FC01E458FF4F859194918FB73C
:10014000F894EC91E22BEC938FBF0895CF92DF925D
:10015000EF92FF920F931F93CF93DF936C017A017D
:100160008B01C0E0D0E0CE15DF0589F0D8016D919C
:100170008D01D601ED91FC910190F081E02DC60139
:100180000995892B11F47E0102C02196ECCFC7019D
:10019000DF91CF911F910F91FF90EF90DF90CF9063
:1001A0000895089580E090E00895FC01538D448DFA
:1001B000252F30E0842F90E0821B930B541710F012
:1001C000CF96089501970895FC01918D828D98171F
:1001D00061F0828DDF01A80FB11D5D968C91928D2B
:1001E0009F5F9F73928F90E008958FEF9FEF089528
:1001F000FC01918D828D981731F0828DE80FF11DF1
:10020000858D90E008958FEF9FEF0895FC01918D0B
:10021000228D892F90E0805C9F4F821B91098F7304
:100220009927089587E391E00E94060121E0892B38
:1002300009F420E0822F0895FC01848DDF01A80FCE
:10024000B11DA35ABF4F2C91848D90E001968F73FE
:100250009927848FA689B7892C93A089B1898C911D
:1002600080648C93938D848D981306C00288F389E3
:10027000E02D80818F7D80830895EF92FF920F9310
:100280001F93CF93DF93EC0181E0888F9B8D8C8D42
:10029000981305C0E889F989808185FD24C0F62E70
:1002A0000B8D10E00F5F1F4F0F731127E02E8C8D09
:1002B000E8120CC00FB607FCFACFE889F9898081F3
:1002C00085FFF5CFCE010E941C01F1CF8B8DFE0181
:1002D000E80FF11DE35AFF4FF0820B8FEA89FB898B
:1002E0008081806207C0EE89FF896083E889F9898F
:1002F00080818064808381E090E0DF91CF911F91C5
:100300000F91FF90EF900895CF93DF93EC01888DCC
:100310008823C9F0EA89FB89808185FD05C0A88909
:10032000B9898C9186FD0FC00FB607FCF5CF80818F
:1003300085FFF2CFA889B9898C9185FFEDCFCE01D9
:100340000E941C01E7CFDF91CF91089580E090E0FB
:10035000892B29F00E94120181110C94000008954C
:1003600090E0FC01E859FF4F3491FC01EC55FF4F40
:100370002491FC01E057FF4FE491EE2309F43BC0C8
:10038000332339F1333091F038F43130A9F0323081
:1003900001F584B58F7D12C0373091F03830A1F06F
:1003A0003430B9F4809180008F7D03C0809180004B
:1003B0008F77809380000DC084B58F7784BD09C08E
:1003C0008091B0008F7703C08091B0008F7D8093C3
:1003D000B000F0E0EE0FFF1FE458FF4FA591B4917D
:1003E0008FB7F894EC91611103C020952E2301C0C2
:1003F0002E2B2C938FBF08951F93CF93DF93182F2D
:10040000EB010E948700209711F460E004C0CF3F09
:10041000D10539F461E0812FDF91CF911F910C94C8
:10042000B001E12FF0E0E859FF4FE491E330F9F03B
:1004300048F4E130B9F0E230A1F584B5806284BDC2
:10044000C8BD34C0E730E9F0E83019F1E43049F5CF
:1004500080918000806280938000D0938B00C09355
:100460008A0024C084B5806884BDC7BD1FC0809148
:100470008000806880938000D0938900C0938800BA
:1004800015C08091B00080688093B000C093B30025
:100490000DC08091B00080628093B000C093B40022
:1004A00005C0C038D1050CF0B5CFAFCFDF91CF91EB
:1004B0001F9108953FB7F89480912D0190912E01DE
:1004C000A0912F01B091300126B5A89B05C02F3F08
:1004D00019F00196A11DB11D3FBFBA2FA92F982F6A
:1004E0008827820F911DA11DB11DBC01CD0142E0E5
:1004F000660F771F881F991F4A95D1F708950097B7
:1005000069F0FC0101900020E9F73197AF01481B29
:10051000590BBC0187E391E00C94A60080E090E0C9
:1005200008950E9440051F920F920FB60F9211245A
:100530002F933F934F935F936F937F938F939F93EB
:10054000AF93BF93EF93FF9387E391E00E941C0169
:10055000FF91EF91BF91AF919F918F917F916F919B
:100560005F914F913F912F910F900FBE0F901F9071
:1005700018951F920F920FB60F9211242F938F93FD
:100580009F93EF93FF93E0914701F09148018081A1
:10059000E0914D01F0914E0182FD12C09081809159
:1005A00050018F5F8F7320915101821751F0E091BC
:1005B0005001F0E0E95CFE4F958F8093500101C03F
:1005C0008081FF91EF919F918F912F910F900FBE9E
:1005D0000F901F9018951F920F920FB60F92112433
:1005E0002F933F938F939F93AF93BF938091290154
:1005F00090912A01A0912B01B0912C0130912801FA
:1006000023E0230F2D3720F40196A11DB11D05C055
:1006100026E8230F0296A11DB11D20932801809387
:10062000290190932A01A0932B01B0932C01809172
:100630002D0190912E01A0912F01B09130010196D2
:10064000A11DB11D80932D0190932E01A0932F0128
:10065000B0933001BF91AF919F918F913F912F91B6
:100660000F900FBE0F901F901895CF93DF93CDB7CB
:10067000DEB7A9970FB6F894DEBF0FBECDBF789452
:1006800084B5826084BD84B5816084BD85B5826097
:1006900085BD85B5816085BD80916E008160809348
:1006A0006E001092810080918100826080938100B1
:1006B00080918100816080938100809180008160C1
:1006C000809380008091B10084608093B10080911C
:1006D000B00081608093B00080917A008460809344
:1006E0007A0080917A00826080937A0080917A000B
:1006F000816080937A0080917A00806880937A008C
:100700001092C100E0914701F091480182E080839E
:10071000E0914301F09144011082E0914501F09194
:1007200046018FEC808310924F01E0914B01F091D4
:100730004C0186E08083E0914901F0914A0180817B
:1007400080618083E0914901F0914A018081886055
:100750008083E0914901F0914A0180818068808323
:10076000E0914901F0914A0180818F7D80838BE087
:100770000E94870089E00E94870085E00E94870030
:1007800086E00E94870083E00E94870090E4392E73
:100790002AE0C22ED12CE12CF12C3BE9832E33E050
:1007A000932EA12CB12C30927C0080917A00806431
:1007B00080937A0080917A0086FDFCCF809178004A
:1007C0002091790090E0922B90933601809335012F
:1007D00082E191E00E947F02409035015090360105
:1007E000052C000C6608770877FE26C0E0913701DB
:1007F000F09138010190F081E02D6DE287E391E006
:10080000099522273327A9012419350946095709D3
:1008100019A28E010F5D1F4FCA01B901A7019601F0
:100820000E940905605DF80162938F012115310571
:100830004105510589F715C0A301920119A28E0146
:100840000F5D1F4FCA01B901A70196010E9409055A
:10085000605DF80162938F01211531054105510555
:1008600089F7C8010E947F0284E291E00E947F0222
:100870004090350150903601052C000C6608770831
:10088000F4E64F1A510861087108AFEFB0E0A30118
:1008900092010E94FE04A50194010E94DF042AA394
:1008A0003BA34CA35DA38AA19BA1909334018093A9
:1008B0003301ABEEB0E0A30192010E94FE04A5015A
:1008C00094010E94DF0429013A0194E1490E511C70
:1008D000611C711C50923201409231016AA17BA1CE
:1008E0008BE00E94FC01B20185E00E94FC01B20194
:1008F00086E00E94FC01B20183E00E94FC01B2018B
:1009000089E00E94FC010E945A029B01AC0184E62E
:10091000482E512C612C712C2EA33FA348A759A718
:100920000E945A022EA13FA148A559A5DC01CB0186
:10093000821B930BA40BB50B883E9340A105B10518
:1009400048F0E1E04E1A51086108710828513C4F07
:100950004F4F5F4F4114510461047104E9F60E9446
:10096000A60121CFE7E3F1E01382128288EE93E043
:10097000A0E0B0E084839583A683B78384E091E010
:100980009183808385EC90E09587848784EC90E068
:100990009787868780EC90E0918B808B81EC90E04C
:1009A000938B828B82EC90E0958B848B86EC90E02D
:1009B000978B868B118E128E138E148E0895052EB2
:1009C00097FB1EF400940E94F60457FD07D00E9486
:1009D000090507FC03D04EF40C94F604509540959D
:1009E000309521953F4F4F4F5F4F089590958095DB
:1009F000709561957F4F8F4F9F4F08950E942B05F3
:100A0000A59F900DB49F900DA49F800D911D112462
:100A10000895A1E21A2EAA1BBB1BFD010DC0AA1F3F
:100A2000BB1FEE1FFF1FA217B307E407F50720F057
:100A3000A21BB30BE40BF50B661F771F881F991FD2
:100A40001A9469F760957095809590959B01AC011B
:100A5000BD01CF010895A29FB001B39FC001A39F24
:100A6000700D811D1124911DB29F700D811D1124E7
:100A7000911D0895EE0FFF1F0590F491E02D09944C
:0E0A800081E090E0F8940C944505F894FFCFC7
:100A8E00000000003D01A600D50084010601E4002F
:100A9E00F800416E616C6F672072656164696E6704
:080AAE00203D20000D0A0000AC
:107E0000112484B714BE81FFF0D085E080938100F7
:107E100082E08093C00088E18093C10086E0809377
:107E2000C20080E18093C4008EE0C9D0259A86E02C
:107E300020E33CEF91E0309385002093840096BBD3
:107E4000B09BFECF1D9AA8958150A9F7CC24DD24C4
:107E500088248394B5E0AB2EA1E19A2EF3E0BF2EE7
:107E6000A2D0813461F49FD0082FAFD0023811F036
:107E7000013811F484E001C083E08DD089C08234E0
:107E800011F484E103C0853419F485E0A6D080C0E4
:107E9000853579F488D0E82EFF2485D0082F10E0AE
:107EA000102F00270E291F29000F111F8ED06801E7
:107EB0006FC0863521F484E090D080E0DECF843638
:107EC00009F040C070D06FD0082F6DD080E0C81688
:107ED00080E7D80618F4F601B7BEE895C0E0D1E017
:107EE00062D089930C17E1F7F0E0CF16F0E7DF06D8
:107EF00018F0F601B7BEE89568D007B600FCFDCFD4
:107F0000A601A0E0B1E02C9130E011968C91119780
:107F100090E0982F8827822B932B1296FA010C0160
:107F200087BEE89511244E5F5F4FF1E0A038BF0790
:107F300051F7F601A7BEE89507B600FCFDCF97BE46
:107F4000E89526C08437B1F42ED02DD0F82E2BD052
:107F50003CD0F601EF2C8F010F5F1F4F84911BD097
:107F6000EA94F801C1F70894C11CD11CFA94CF0C13
:107F7000D11C0EC0853739F428D08EE10CD085E9AC
:107F80000AD08FE07ACF813511F488E018D01DD067
:107F900080E101D065CF982F8091C00085FFFCCF94
:107FA0009093C60008958091C00087FFFCCF809118
:107FB000C00084FD01C0A8958091C6000895E0E648
:107FC000F0E098E1908380830895EDDF803219F02E
:107FD00088E0F5DFFFCF84E1DECF1F93182FE3DFCA
:107FE0001150E9F7F2DF1F91089580E0E8DFEE27F6
:047FF000FF270994CA
:027FFE00040479
:0400000300007E007B
:00000001FF
